{
  "_format": "hh-sol-artifact-1",
  "contractName": "InternNFT",
  "sourceName": "contracts/InternNFT.sol",
  "abi": [
    {
      "inputs": [],
      "stateMutability": "nonpayable",
      "type": "constructor"
    },
    {
      "inputs": [
        {
          "internalType": "address",
          "name": "sender",
          "type": "address"
        },
        {
          "internalType": "uint256",
          "name": "tokenId",
          "type": "uint256"
        },
        {
          "internalType": "address",
          "name": "owner",
          "type": "address"
        }
      ],
      "name": "ERC721IncorrectOwner",
      "type": "error"
    },
    {
      "inputs": [
        {
          "internalType": "address",
          "name": "operator",
          "type": "address"
        },
        {
          "internalType": "uint256",
          "name": "tokenId",
          "type": "uint256"
        }
      ],
      "name": "ERC721InsufficientApproval",
      "type": "error"
    },
    {
      "inputs": [
        {
          "internalType": "address",
          "name": "approver",
          "type": "address"
        }
      ],
      "name": "ERC721InvalidApprover",
      "type": "error"
    },
    {
      "inputs": [
        {
          "internalType": "address",
          "name": "operator",
          "type": "address"
        }
      ],
      "name": "ERC721InvalidOperator",
      "type": "error"
    },
    {
      "inputs": [
        {
          "internalType": "address",
          "name": "owner",
          "type": "address"
        }
      ],
      "name": "ERC721InvalidOwner",
      "type": "error"
    },
    {
      "inputs": [
        {
          "internalType": "address",
          "name": "receiver",
          "type": "address"
        }
      ],
      "name": "ERC721InvalidReceiver",
      "type": "error"
    },
    {
      "inputs": [
        {
          "internalType": "address",
          "name": "sender",
          "type": "address"
        }
      ],
      "name": "ERC721InvalidSender",
      "type": "error"
    },
    {
      "inputs": [
        {
          "internalType": "uint256",
          "name": "tokenId",
          "type": "uint256"
        }
      ],
      "name": "ERC721NonexistentToken",
      "type": "error"
    },
    {
      "inputs": [
        {
          "internalType": "address",
          "name": "owner",
          "type": "address"
        }
      ],
      "name": "OwnableInvalidOwner",
      "type": "error"
    },
    {
      "inputs": [
        {
          "internalType": "address",
          "name": "account",
          "type": "address"
        }
      ],
      "name": "OwnableUnauthorizedAccount",
      "type": "error"
    },
    {
      "anonymous": false,
      "inputs": [
        {
          "indexed": true,
          "internalType": "address",
          "name": "owner",
          "type": "address"
        },
        {
          "indexed": true,
          "internalType": "address",
          "name": "approved",
          "type": "address"
        },
        {
          "indexed": true,
          "internalType": "uint256",
          "name": "tokenId",
          "type": "uint256"
        }
      ],
      "name": "Approval",
      "type": "event"
    },
    {
      "anonymous": false,
      "inputs": [
        {
          "indexed": true,
          "internalType": "address",
          "name": "owner",
          "type": "address"
        },
        {
          "indexed": true,
          "internalType": "address",
          "name": "operator",
          "type": "address"
        },
        {
          "indexed": false,
          "internalType": "bool",
          "name": "approved",
          "type": "bool"
        }
      ],
      "name": "ApprovalForAll",
      "type": "event"
    },
    {
      "anonymous": false,
      "inputs": [
        {
          "indexed": false,
          "internalType": "uint256",
          "name": "_fromTokenId",
          "type": "uint256"
        },
        {
          "indexed": false,
          "internalType": "uint256",
          "name": "_toTokenId",
          "type": "uint256"
        }
      ],
      "name": "BatchMetadataUpdate",
      "type": "event"
    },
    {
      "anonymous": false,
      "inputs": [
        {
          "indexed": false,
          "internalType": "uint256",
          "name": "_tokenId",
          "type": "uint256"
        }
      ],
      "name": "MetadataUpdate",
      "type": "event"
    },
    {
      "anonymous": false,
      "inputs": [
        {
          "indexed": true,
          "internalType": "address",
          "name": "previousOwner",
          "type": "address"
        },
        {
          "indexed": true,
          "internalType": "address",
          "name": "newOwner",
          "type": "address"
        }
      ],
      "name": "OwnershipTransferred",
      "type": "event"
    },
    {
      "anonymous": false,
      "inputs": [
        {
          "indexed": true,
          "internalType": "address",
          "name": "from",
          "type": "address"
        },
        {
          "indexed": true,
          "internalType": "address",
          "name": "to",
          "type": "address"
        },
        {
          "indexed": true,
          "internalType": "uint256",
          "name": "tokenId",
          "type": "uint256"
        }
      ],
      "name": "Transfer",
      "type": "event"
    },
    {
      "inputs": [
        {
          "internalType": "address",
          "name": "to",
          "type": "address"
        },
        {
          "internalType": "uint256",
          "name": "tokenId",
          "type": "uint256"
        }
      ],
      "name": "approve",
      "outputs": [],
      "stateMutability": "nonpayable",
      "type": "function"
    },
    {
      "inputs": [
        {
          "internalType": "address",
          "name": "owner",
          "type": "address"
        }
      ],
      "name": "balanceOf",
      "outputs": [
        {
          "internalType": "uint256",
          "name": "",
          "type": "uint256"
        }
      ],
      "stateMutability": "view",
      "type": "function"
    },
    {
      "inputs": [
        {
          "internalType": "uint256",
          "name": "tokenId",
          "type": "uint256"
        }
      ],
      "name": "getApproved",
      "outputs": [
        {
          "internalType": "address",
          "name": "",
          "type": "address"
        }
      ],
      "stateMutability": "view",
      "type": "function"
    },
    {
      "inputs": [
        {
          "internalType": "address",
          "name": "owner",
          "type": "address"
        },
        {
          "internalType": "address",
          "name": "operator",
          "type": "address"
        }
      ],
      "name": "isApprovedForAll",
      "outputs": [
        {
          "internalType": "bool",
          "name": "",
          "type": "bool"
        }
      ],
      "stateMutability": "view",
      "type": "function"
    },
    {
      "inputs": [
        {
          "internalType": "address",
          "name": "intern",
          "type": "address"
        },
        {
          "internalType": "string",
          "name": "tokenURI",
          "type": "string"
        }
      ],
      "name": "mintInternNFT",
      "outputs": [
        {
          "internalType": "uint256",
          "name": "",
          "type": "uint256"
        }
      ],
      "stateMutability": "nonpayable",
      "type": "function"
    },
    {
      "inputs": [],
      "name": "name",
      "outputs": [
        {
          "internalType": "string",
          "name": "",
          "type": "string"
        }
      ],
      "stateMutability": "view",
      "type": "function"
    },
    {
      "inputs": [],
      "name": "owner",
      "outputs": [
        {
          "internalType": "address",
          "name": "",
          "type": "address"
        }
      ],
      "stateMutability": "view",
      "type": "function"
    },
    {
      "inputs": [
        {
          "internalType": "uint256",
          "name": "tokenId",
          "type": "uint256"
        }
      ],
      "name": "ownerOf",
      "outputs": [
        {
          "internalType": "address",
          "name": "",
          "type": "address"
        }
      ],
      "stateMutability": "view",
      "type": "function"
    },
    {
      "inputs": [],
      "name": "renounceOwnership",
      "outputs": [],
      "stateMutability": "nonpayable",
      "type": "function"
    },
    {
      "inputs": [
        {
          "internalType": "address",
          "name": "from",
          "type": "address"
        },
        {
          "internalType": "address",
          "name": "to",
          "type": "address"
        },
        {
          "internalType": "uint256",
          "name": "tokenId",
          "type": "uint256"
        }
      ],
      "name": "safeTransferFrom",
      "outputs": [],
      "stateMutability": "nonpayable",
      "type": "function"
    },
    {
      "inputs": [
        {
          "internalType": "address",
          "name": "from",
          "type": "address"
        },
        {
          "internalType": "address",
          "name": "to",
          "type": "address"
        },
        {
          "internalType": "uint256",
          "name": "tokenId",
          "type": "uint256"
        },
        {
          "internalType": "bytes",
          "name": "data",
          "type": "bytes"
        }
      ],
      "name": "safeTransferFrom",
      "outputs": [],
      "stateMutability": "nonpayable",
      "type": "function"
    },
    {
      "inputs": [
        {
          "internalType": "address",
          "name": "operator",
          "type": "address"
        },
        {
          "internalType": "bool",
          "name": "approved",
          "type": "bool"
        }
      ],
      "name": "setApprovalForAll",
      "outputs": [],
      "stateMutability": "nonpayable",
      "type": "function"
    },
    {
      "inputs": [
        {
          "internalType": "bytes4",
          "name": "interfaceId",
          "type": "bytes4"
        }
      ],
      "name": "supportsInterface",
      "outputs": [
        {
          "internalType": "bool",
          "name": "",
          "type": "bool"
        }
      ],
      "stateMutability": "view",
      "type": "function"
    },
    {
      "inputs": [],
      "name": "symbol",
      "outputs": [
        {
          "internalType": "string",
          "name": "",
          "type": "string"
        }
      ],
      "stateMutability": "view",
      "type": "function"
    },
    {
      "inputs": [],
      "name": "tokenCounter",
      "outputs": [
        {
          "internalType": "uint256",
          "name": "",
          "type": "uint256"
        }
      ],
      "stateMutability": "view",
      "type": "function"
    },
    {
      "inputs": [
        {
          "internalType": "uint256",
          "name": "tokenId",
          "type": "uint256"
        }
      ],
      "name": "tokenURI",
      "outputs": [
        {
          "internalType": "string",
          "name": "",
          "type": "string"
        }
      ],
      "stateMutability": "view",
      "type": "function"
    },
    {
      "inputs": [
        {
          "internalType": "address",
          "name": "from",
          "type": "address"
        },
        {
          "internalType": "address",
          "name": "to",
          "type": "address"
        },
        {
          "internalType": "uint256",
          "name": "tokenId",
          "type": "uint256"
        }
      ],
      "name": "transferFrom",
      "outputs": [],
      "stateMutability": "nonpayable",
      "type": "function"
    },
    {
      "inputs": [
        {
          "internalType": "address",
          "name": "newOwner",
          "type": "address"
        }
      ],
      "name": "transferOwnership",
      "outputs": [],
      "stateMutability": "nonpayable",
      "type": "function"
    }
  ],
  "bytecode": "0x60806040523480156200001157600080fd5b50336040518060400160405280601681526020017f496e7465726e20416368696576656d656e74204e4654000000000000000000008152506040518060400160405280600381526020017f49414e000000000000000000000000000000000000000000000000000000000081525081600090816200009091906200047a565b508060019081620000a291906200047a565b505050600073ffffffffffffffffffffffffffffffffffffffff168173ffffffffffffffffffffffffffffffffffffffff16036200011a5760006040517f1e4fbdf7000000000000000000000000000000000000000000000000000000008152600401620001119190620005a6565b60405180910390fd5b6200012b816200013a60201b60201c565b506000600881905550620005c3565b6000600760009054906101000a900473ffffffffffffffffffffffffffffffffffffffff16905081600760006101000a81548173ffffffffffffffffffffffffffffffffffffffff021916908373ffffffffffffffffffffffffffffffffffffffff1602179055508173ffffffffffffffffffffffffffffffffffffffff168173ffffffffffffffffffffffffffffffffffffffff167f8be0079c531659141344cd1fd0a4f28419497f9722a3daafe3b4186f6b6457e060405160405180910390a35050565b600081519050919050565b7f4e487b7100000000000000000000000000000000000000000000000000000000600052604160045260246000fd5b7f4e487b7100000000000000000000000000000000000000000000000000000000600052602260045260246000fd5b600060028204905060018216806200028257607f821691505b6020821081036200029857620002976200023a565b5b50919050565b60008190508160005260206000209050919050565b60006020601f8301049050919050565b600082821b905092915050565b600060088302620003027fffffffffffffffffffffffffffffffffffffffffffffffffffffffffffffffff82620002c3565b6200030e8683620002c3565b95508019841693508086168417925050509392505050565b6000819050919050565b6000819050919050565b60006200035b620003556200034f8462000326565b62000330565b62000326565b9050919050565b6000819050919050565b62000377836200033a565b6200038f620003868262000362565b848454620002d0565b825550505050565b600090565b620003a662000397565b620003b38184846200036c565b505050565b5b81811015620003db57620003cf6000826200039c565b600181019050620003b9565b5050565b601f8211156200042a57620003f4816200029e565b620003ff84620002b3565b810160208510156200040f578190505b620004276200041e85620002b3565b830182620003b8565b50505b505050565b600082821c905092915050565b60006200044f600019846008026200042f565b1980831691505092915050565b60006200046a83836200043c565b9150826002028217905092915050565b620004858262000200565b67ffffffffffffffff811115620004a157620004a06200020b565b5b620004ad825462000269565b620004ba828285620003df565b600060209050601f831160018114620004f25760008415620004dd578287015190505b620004e985826200045c565b86555062000559565b601f19841662000502866200029e565b60005b828110156200052c5784890151825560018201915060208501945060208101905062000505565b868310156200054c578489015162000548601f8916826200043c565b8355505b6001600288020188555050505b505050505050565b600073ffffffffffffffffffffffffffffffffffffffff82169050919050565b60006200058e8262000561565b9050919050565b620005a08162000581565b82525050565b6000602082019050620005bd600083018462000595565b92915050565b61278b80620005d36000396000f3fe608060405234801561001057600080fd5b50600436106101165760003560e01c806384246981116100a2578063b88d4fde11610071578063b88d4fde146102df578063c87b56dd146102fb578063d082e3811461032b578063e985e9c514610349578063f2fde38b1461037957610116565b806384246981146102575780638da5cb5b1461028757806395d89b41146102a5578063a22cb465146102c357610116565b806323b872dd116100e957806323b872dd146101b557806342842e0e146101d15780636352211e146101ed57806370a082311461021d578063715018a61461024d57610116565b806301ffc9a71461011b57806306fdde031461014b578063081812fc14610169578063095ea7b314610199575b600080fd5b61013560048036038101906101309190611b77565b610395565b6040516101429190611bbf565b60405180910390f35b6101536103f6565b6040516101609190611c6a565b60405180910390f35b610183600480360381019061017e9190611cc2565b610488565b6040516101909190611d30565b60405180910390f35b6101b360048036038101906101ae9190611d77565b6104a4565b005b6101cf60048036038101906101ca9190611db7565b6104ba565b005b6101eb60048036038101906101e69190611db7565b6105bc565b005b61020760048036038101906102029190611cc2565b6105dc565b6040516102149190611d30565b60405180910390f35b61023760048036038101906102329190611e0a565b6105ee565b6040516102449190611e46565b60405180910390f35b6102556106a8565b005b610271600480360381019061026c9190611f96565b6106bc565b60405161027e9190611e46565b60405180910390f35b61028f610770565b60405161029c9190611d30565b60405180910390f35b6102ad61079a565b6040516102ba9190611c6a565b60405180910390f35b6102dd60048036038101906102d8919061201e565b61082c565b005b6102f960048036038101906102f491906120ff565b610842565b005b61031560048036038101906103109190611cc2565b610867565b6040516103229190611c6a565b60405180910390f35b61033361097a565b6040516103409190611e46565b60405180910390f35b610363600480360381019061035e9190612182565b610980565b6040516103709190611bbf565b60405180910390f35b610393600480360381019061038e9190611e0a565b610a14565b005b6000634906490660e01b7bffffffffffffffffffffffffffffffffffffffffffffffffffffffff1916827bffffffffffffffffffffffffffffffffffffffffffffffffffffffff191614806103ef57506103ee82610a9a565b5b9050919050565b606060008054610405906121f1565b80601f0160208091040260200160405190810160405280929190818152602001828054610431906121f1565b801561047e5780601f106104535761010080835404028352916020019161047e565b820191906000526020600020905b81548152906001019060200180831161046157829003601f168201915b5050505050905090565b600061049382610b7c565b5061049d82610c04565b9050919050565b6104b682826104b1610c41565b610c49565b5050565b600073ffffffffffffffffffffffffffffffffffffffff168273ffffffffffffffffffffffffffffffffffffffff160361052c5760006040517f64a0ae920000000000000000000000000000000000000000000000000000000081526004016105239190611d30565b60405180910390fd5b6000610540838361053b610c41565b610c5b565b90508373ffffffffffffffffffffffffffffffffffffffff168173ffffffffffffffffffffffffffffffffffffffff16146105b6578382826040517f64283d7b0000000000000000000000000000000000000000000000000000000081526004016105ad93929190612222565b60405180910390fd5b50505050565b6105d783838360405180602001604052806000815250610842565b505050565b60006105e782610b7c565b9050919050565b60008073ffffffffffffffffffffffffffffffffffffffff168273ffffffffffffffffffffffffffffffffffffffff16036106615760006040517f89c62b640000000000000000000000000000000000000000000000000000000081526004016106589190611d30565b60405180910390fd5b600360008373ffffffffffffffffffffffffffffffffffffffff1673ffffffffffffffffffffffffffffffffffffffff168152602001908152602001600020549050919050565b6106b0610e75565b6106ba6000610efc565b565b60006106c6610e75565b600073ffffffffffffffffffffffffffffffffffffffff168373ffffffffffffffffffffffffffffffffffffffff1603610735576040517f08c379a000000000000000000000000000000000000000000000000000000000815260040161072c906122a5565b60405180910390fd5b60086000815480929190610748906122f4565b919050555061075983600854610fc2565b61076560085483610fe0565b600854905092915050565b6000600760009054906101000a900473ffffffffffffffffffffffffffffffffffffffff16905090565b6060600180546107a9906121f1565b80601f01602080910402602001604051908101604052809291908181526020018280546107d5906121f1565b80156108225780601f106107f757610100808354040283529160200191610822565b820191906000526020600020905b81548152906001019060200180831161080557829003601f168201915b5050505050905090565b61083e610837610c41565b838361103c565b5050565b61084d8484846104ba565b610861610858610c41565b858585856111ab565b50505050565b606061087282610b7c565b506000600660008481526020019081526020016000208054610893906121f1565b80601f01602080910402602001604051908101604052809291908181526020018280546108bf906121f1565b801561090c5780601f106108e15761010080835404028352916020019161090c565b820191906000526020600020905b8154815290600101906020018083116108ef57829003601f168201915b50505050509050600061091d61135c565b90506000815103610932578192505050610975565b60008251111561096757808260405160200161094f929190612378565b60405160208183030381529060405292505050610975565b61097084611373565b925050505b919050565b60085481565b6000600560008473ffffffffffffffffffffffffffffffffffffffff1673ffffffffffffffffffffffffffffffffffffffff16815260200190815260200160002060008373ffffffffffffffffffffffffffffffffffffffff1673ffffffffffffffffffffffffffffffffffffffff16815260200190815260200160002060009054906101000a900460ff16905092915050565b610a1c610e75565b600073ffffffffffffffffffffffffffffffffffffffff168173ffffffffffffffffffffffffffffffffffffffff1603610a8e5760006040517f1e4fbdf7000000000000000000000000000000000000000000000000000000008152600401610a859190611d30565b60405180910390fd5b610a9781610efc565b50565b60007f80ac58cd000000000000000000000000000000000000000000000000000000007bffffffffffffffffffffffffffffffffffffffffffffffffffffffff1916827bffffffffffffffffffffffffffffffffffffffffffffffffffffffff19161480610b6557507f5b5e139f000000000000000000000000000000000000000000000000000000007bffffffffffffffffffffffffffffffffffffffffffffffffffffffff1916827bffffffffffffffffffffffffffffffffffffffffffffffffffffffff1916145b80610b755750610b74826113dc565b5b9050919050565b600080610b8883611446565b9050600073ffffffffffffffffffffffffffffffffffffffff168173ffffffffffffffffffffffffffffffffffffffff1603610bfb57826040517f7e273289000000000000000000000000000000000000000000000000000000008152600401610bf29190611e46565b60405180910390fd5b80915050919050565b60006004600083815260200190815260200160002060009054906101000a900473ffffffffffffffffffffffffffffffffffffffff169050919050565b600033905090565b610c568383836001611483565b505050565b600080610c6784611446565b9050600073ffffffffffffffffffffffffffffffffffffffff168373ffffffffffffffffffffffffffffffffffffffff1614610ca957610ca8818486611648565b5b600073ffffffffffffffffffffffffffffffffffffffff168173ffffffffffffffffffffffffffffffffffffffff1614610d3a57610ceb600085600080611483565b6001600360008373ffffffffffffffffffffffffffffffffffffffff1673ffffffffffffffffffffffffffffffffffffffff168152602001908152602001600020600082825403925050819055505b600073ffffffffffffffffffffffffffffffffffffffff168573ffffffffffffffffffffffffffffffffffffffff1614610dbd576001600360008773ffffffffffffffffffffffffffffffffffffffff1673ffffffffffffffffffffffffffffffffffffffff168152602001908152602001600020600082825401925050819055505b846002600086815260200190815260200160002060006101000a81548173ffffffffffffffffffffffffffffffffffffffff021916908373ffffffffffffffffffffffffffffffffffffffff160217905550838573ffffffffffffffffffffffffffffffffffffffff168273ffffffffffffffffffffffffffffffffffffffff167fddf252ad1be2c89b69c2b068fc378daa952ba7f163c4a11628f55a4df523b3ef60405160405180910390a4809150509392505050565b610e7d610c41565b73ffffffffffffffffffffffffffffffffffffffff16610e9b610770565b73ffffffffffffffffffffffffffffffffffffffff1614610efa57610ebe610c41565b6040517f118cdaa7000000000000000000000000000000000000000000000000000000008152600401610ef19190611d30565b60405180910390fd5b565b6000600760009054906101000a900473ffffffffffffffffffffffffffffffffffffffff16905081600760006101000a81548173ffffffffffffffffffffffffffffffffffffffff021916908373ffffffffffffffffffffffffffffffffffffffff1602179055508173ffffffffffffffffffffffffffffffffffffffff168173ffffffffffffffffffffffffffffffffffffffff167f8be0079c531659141344cd1fd0a4f28419497f9722a3daafe3b4186f6b6457e060405160405180910390a35050565b610fdc82826040518060200160405280600081525061170c565b5050565b806006600084815260200190815260200160002090816110009190612548565b507ff8e1a15aba9398e019f0b49df1a4fde98ee17ae345cb5f6b5e2c27f5033e8ce7826040516110309190611e46565b60405180910390a15050565b600073ffffffffffffffffffffffffffffffffffffffff168273ffffffffffffffffffffffffffffffffffffffff16036110ad57816040517f5b08ba180000000000000000000000000000000000000000000000000000000081526004016110a49190611d30565b60405180910390fd5b80600560008573ffffffffffffffffffffffffffffffffffffffff1673ffffffffffffffffffffffffffffffffffffffff16815260200190815260200160002060008473ffffffffffffffffffffffffffffffffffffffff1673ffffffffffffffffffffffffffffffffffffffff16815260200190815260200160002060006101000a81548160ff0219169083151502179055508173ffffffffffffffffffffffffffffffffffffffff168373ffffffffffffffffffffffffffffffffffffffff167f17307eab39ab6107e8899845ad3d59bd9653f200f220920489ca2b5937696c318360405161119e9190611bbf565b60405180910390a3505050565b60008373ffffffffffffffffffffffffffffffffffffffff163b1115611355578273ffffffffffffffffffffffffffffffffffffffff1663150b7a02868685856040518563ffffffff1660e01b815260040161120a949392919061266f565b6020604051808303816000875af192505050801561124657506040513d601f19601f8201168201806040525081019061124391906126d0565b60015b6112ca573d8060008114611276576040519150601f19603f3d011682016040523d82523d6000602084013e61127b565b606091505b5060008151036112c257836040517f64a0ae920000000000000000000000000000000000000000000000000000000081526004016112b99190611d30565b60405180910390fd5b805160208201fd5b63150b7a0260e01b7bffffffffffffffffffffffffffffffffffffffffffffffffffffffff1916817bffffffffffffffffffffffffffffffffffffffffffffffffffffffff19161461135357836040517f64a0ae9200000000000000000000000000000000000000000000000000000000815260040161134a9190611d30565b60405180910390fd5b505b5050505050565b606060405180602001604052806000815250905090565b606061137e82610b7c565b50600061138961135c565b905060008151116113a957604051806020016040528060008152506113d4565b806113b384611730565b6040516020016113c4929190612378565b6040516020818303038152906040525b915050919050565b60007f01ffc9a7000000000000000000000000000000000000000000000000000000007bffffffffffffffffffffffffffffffffffffffffffffffffffffffff1916827bffffffffffffffffffffffffffffffffffffffffffffffffffffffff1916149050919050565b60006002600083815260200190815260200160002060009054906101000a900473ffffffffffffffffffffffffffffffffffffffff169050919050565b80806114bc5750600073ffffffffffffffffffffffffffffffffffffffff168273ffffffffffffffffffffffffffffffffffffffff1614155b156115f05760006114cc84610b7c565b9050600073ffffffffffffffffffffffffffffffffffffffff168373ffffffffffffffffffffffffffffffffffffffff161415801561153757508273ffffffffffffffffffffffffffffffffffffffff168173ffffffffffffffffffffffffffffffffffffffff1614155b801561154a57506115488184610980565b155b1561158c57826040517fa9fbf51f0000000000000000000000000000000000000000000000000000000081526004016115839190611d30565b60405180910390fd5b81156115ee57838573ffffffffffffffffffffffffffffffffffffffff168273ffffffffffffffffffffffffffffffffffffffff167f8c5be1e5ebec7d5bd14f71427d1e84f3dd0314c0f7b2291e5b200ac8c7c3b92560405160405180910390a45b505b836004600085815260200190815260200160002060006101000a81548173ffffffffffffffffffffffffffffffffffffffff021916908373ffffffffffffffffffffffffffffffffffffffff16021790555050505050565b6116538383836117fe565b61170757600073ffffffffffffffffffffffffffffffffffffffff168373ffffffffffffffffffffffffffffffffffffffff16036116c857806040517f7e2732890000000000000000000000000000000000000000000000000000000081526004016116bf9190611e46565b60405180910390fd5b81816040517f177e802f0000000000000000000000000000000000000000000000000000000081526004016116fe9291906126fd565b60405180910390fd5b505050565b61171683836118bf565b61172b611721610c41565b60008585856111ab565b505050565b60606000600161173f846119b8565b01905060008167ffffffffffffffff81111561175e5761175d611e6b565b5b6040519080825280601f01601f1916602001820160405280156117905781602001600182028036833780820191505090505b509050600082602083010190505b6001156117f3578080600190039150507f3031323334353637383961626364656600000000000000000000000000000000600a86061a8153600a85816117e7576117e6612726565b5b0494506000850361179e575b819350505050919050565b60008073ffffffffffffffffffffffffffffffffffffffff168373ffffffffffffffffffffffffffffffffffffffff16141580156118b657508273ffffffffffffffffffffffffffffffffffffffff168473ffffffffffffffffffffffffffffffffffffffff16148061187757506118768484610980565b5b806118b557508273ffffffffffffffffffffffffffffffffffffffff1661189d83610c04565b73ffffffffffffffffffffffffffffffffffffffff16145b5b90509392505050565b600073ffffffffffffffffffffffffffffffffffffffff168273ffffffffffffffffffffffffffffffffffffffff16036119315760006040517f64a0ae920000000000000000000000000000000000000000000000000000000081526004016119289190611d30565b60405180910390fd5b600061193f83836000610c5b565b9050600073ffffffffffffffffffffffffffffffffffffffff168173ffffffffffffffffffffffffffffffffffffffff16146119b35760006040517f73c6ac6e0000000000000000000000000000000000000000000000000000000081526004016119aa9190611d30565b60405180910390fd5b505050565b600080600090507a184f03e93ff9f4daa797ed6e38ed64bf6a1f0100000000000000008310611a16577a184f03e93ff9f4daa797ed6e38ed64bf6a1f0100000000000000008381611a0c57611a0b612726565b5b0492506040810190505b6d04ee2d6d415b85acef81000000008310611a53576d04ee2d6d415b85acef81000000008381611a4957611a48612726565b5b0492506020810190505b662386f26fc100008310611a8257662386f26fc100008381611a7857611a77612726565b5b0492506010810190505b6305f5e1008310611aab576305f5e1008381611aa157611aa0612726565b5b0492506008810190505b6127108310611ad0576127108381611ac657611ac5612726565b5b0492506004810190505b60648310611af35760648381611ae957611ae8612726565b5b0492506002810190505b600a8310611b02576001810190505b80915050919050565b6000604051905090565b600080fd5b600080fd5b60007fffffffff0000000000000000000000000000000000000000000000000000000082169050919050565b611b5481611b1f565b8114611b5f57600080fd5b50565b600081359050611b7181611b4b565b92915050565b600060208284031215611b8d57611b8c611b15565b5b6000611b9b84828501611b62565b91505092915050565b60008115159050919050565b611bb981611ba4565b82525050565b6000602082019050611bd46000830184611bb0565b92915050565b600081519050919050565b600082825260208201905092915050565b60005b83811015611c14578082015181840152602081019050611bf9565b60008484015250505050565b6000601f19601f8301169050919050565b6000611c3c82611bda565b611c468185611be5565b9350611c56818560208601611bf6565b611c5f81611c20565b840191505092915050565b60006020820190508181036000830152611c848184611c31565b905092915050565b6000819050919050565b611c9f81611c8c565b8114611caa57600080fd5b50565b600081359050611cbc81611c96565b92915050565b600060208284031215611cd857611cd7611b15565b5b6000611ce684828501611cad565b91505092915050565b600073ffffffffffffffffffffffffffffffffffffffff82169050919050565b6000611d1a82611cef565b9050919050565b611d2a81611d0f565b82525050565b6000602082019050611d456000830184611d21565b92915050565b611d5481611d0f565b8114611d5f57600080fd5b50565b600081359050611d7181611d4b565b92915050565b60008060408385031215611d8e57611d8d611b15565b5b6000611d9c85828601611d62565b9250506020611dad85828601611cad565b9150509250929050565b600080600060608486031215611dd057611dcf611b15565b5b6000611dde86828701611d62565b9350506020611def86828701611d62565b9250506040611e0086828701611cad565b9150509250925092565b600060208284031215611e2057611e1f611b15565b5b6000611e2e84828501611d62565b91505092915050565b611e4081611c8c565b82525050565b6000602082019050611e5b6000830184611e37565b92915050565b600080fd5b600080fd5b7f4e487b7100000000000000000000000000000000000000000000000000000000600052604160045260246000fd5b611ea382611c20565b810181811067ffffffffffffffff82111715611ec257611ec1611e6b565b5b80604052505050565b6000611ed5611b0b565b9050611ee18282611e9a565b919050565b600067ffffffffffffffff821115611f0157611f00611e6b565b5b611f0a82611c20565b9050602081019050919050565b82818337600083830152505050565b6000611f39611f3484611ee6565b611ecb565b905082815260208101848484011115611f5557611f54611e66565b5b611f60848285611f17565b509392505050565b600082601f830112611f7d57611f7c611e61565b5b8135611f8d848260208601611f26565b91505092915050565b60008060408385031215611fad57611fac611b15565b5b6000611fbb85828601611d62565b925050602083013567ffffffffffffffff811115611fdc57611fdb611b1a565b5b611fe885828601611f68565b9150509250929050565b611ffb81611ba4565b811461200657600080fd5b50565b60008135905061201881611ff2565b92915050565b6000806040838503121561203557612034611b15565b5b600061204385828601611d62565b925050602061205485828601612009565b9150509250929050565b600067ffffffffffffffff82111561207957612078611e6b565b5b61208282611c20565b9050602081019050919050565b60006120a261209d8461205e565b611ecb565b9050828152602081018484840111156120be576120bd611e66565b5b6120c9848285611f17565b509392505050565b600082601f8301126120e6576120e5611e61565b5b81356120f684826020860161208f565b91505092915050565b6000806000806080858703121561211957612118611b15565b5b600061212787828801611d62565b945050602061213887828801611d62565b935050604061214987828801611cad565b925050606085013567ffffffffffffffff81111561216a57612169611b1a565b5b612176878288016120d1565b91505092959194509250565b6000806040838503121561219957612198611b15565b5b60006121a785828601611d62565b92505060206121b885828601611d62565b9150509250929050565b7f4e487b7100000000000000000000000000000000000000000000000000000000600052602260045260246000fd5b6000600282049050600182168061220957607f821691505b60208210810361221c5761221b6121c2565b5b50919050565b60006060820190506122376000830186611d21565b6122446020830185611e37565b6122516040830184611d21565b949350505050565b7f496e76616c696420696e7465726e206164647265737300000000000000000000600082015250565b600061228f601683611be5565b915061229a82612259565b602082019050919050565b600060208201905081810360008301526122be81612282565b9050919050565b7f4e487b7100000000000000000000000000000000000000000000000000000000600052601160045260246000fd5b60006122ff82611c8c565b91507fffffffffffffffffffffffffffffffffffffffffffffffffffffffffffffffff8203612331576123306122c5565b5b600182019050919050565b600081905092915050565b600061235282611bda565b61235c818561233c565b935061236c818560208601611bf6565b80840191505092915050565b60006123848285612347565b91506123908284612347565b91508190509392505050565b60008190508160005260206000209050919050565b60006020601f8301049050919050565b600082821b905092915050565b6000600883026123fe7fffffffffffffffffffffffffffffffffffffffffffffffffffffffffffffffff826123c1565b61240886836123c1565b95508019841693508086168417925050509392505050565b6000819050919050565b600061244561244061243b84611c8c565b612420565b611c8c565b9050919050565b6000819050919050565b61245f8361242a565b61247361246b8261244c565b8484546123ce565b825550505050565b600090565b61248861247b565b612493818484612456565b505050565b5b818110156124b7576124ac600082612480565b600181019050612499565b5050565b601f8211156124fc576124cd8161239c565b6124d6846123b1565b810160208510156124e5578190505b6124f96124f1856123b1565b830182612498565b50505b505050565b600082821c905092915050565b600061251f60001984600802612501565b1980831691505092915050565b6000612538838361250e565b9150826002028217905092915050565b61255182611bda565b67ffffffffffffffff81111561256a57612569611e6b565b5b61257482546121f1565b61257f8282856124bb565b600060209050601f8311600181146125b257600084156125a0578287015190505b6125aa858261252c565b865550612612565b601f1984166125c08661239c565b60005b828110156125e8578489015182556001820191506020850194506020810190506125c3565b868310156126055784890151612601601f89168261250e565b8355505b6001600288020188555050505b505050505050565b600081519050919050565b600082825260208201905092915050565b60006126418261261a565b61264b8185612625565b935061265b818560208601611bf6565b61266481611c20565b840191505092915050565b60006080820190506126846000830187611d21565b6126916020830186611d21565b61269e6040830185611e37565b81810360608301526126b08184612636565b905095945050505050565b6000815190506126ca81611b4b565b92915050565b6000602082840312156126e6576126e5611b15565b5b60006126f4848285016126bb565b91505092915050565b60006040820190506127126000830185611d21565b61271f6020830184611e37565b9392505050565b7f4e487b7100000000000000000000000000000000000000000000000000000000600052601260045260246000fdfea26469706673582212206dfb7c1cc4e1fed10af20f40cccdecde9ea3f69220d892abd0443ed55881e71264736f6c63430008140033",
  "linkReferences": {},
  "deployedLinkReferences": {}
}